{
  "_format": "hh-sol-artifact-1",
  "contractName": "EscrowFactory",
  "sourceName": "contracts/EscrowFactory.sol",
  "abi": [
    {
      "inputs": [
        {
          "internalType": "address",
          "name": "_eip20",
          "type": "address"
        }
      ],
      "stateMutability": "nonpayable",
      "type": "constructor"
    },
    {
      "anonymous": false,
      "inputs": [
        {
          "indexed": false,
          "internalType": "address",
          "name": "eip20",
          "type": "address"
        },
        {
          "indexed": false,
          "internalType": "address",
          "name": "escrow",
          "type": "address"
        }
      ],
      "name": "Launched",
      "type": "event"
    },
    {
      "inputs": [],
      "name": "counter",
      "outputs": [
        {
          "internalType": "uint256",
          "name": "",
          "type": "uint256"
        }
      ],
      "stateMutability": "view",
      "type": "function"
    },
    {
      "inputs": [
        {
          "internalType": "address[]",
          "name": "trustedHandlers",
          "type": "address[]"
        }
      ],
      "name": "createEscrow",
      "outputs": [
        {
          "internalType": "address",
          "name": "",
          "type": "address"
        }
      ],
      "stateMutability": "payable",
      "type": "function"
    },
    {
      "inputs": [],
      "name": "eip20",
      "outputs": [
        {
          "internalType": "address",
          "name": "",
          "type": "address"
        }
      ],
      "stateMutability": "view",
      "type": "function"
    },
    {
      "inputs": [
        {
          "internalType": "address",
          "name": "",
          "type": "address"
        }
      ],
      "name": "escrowCounters",
      "outputs": [
        {
          "internalType": "uint256",
          "name": "",
          "type": "uint256"
        }
      ],
      "stateMutability": "view",
      "type": "function"
    },
    {
      "inputs": [
        {
          "internalType": "address",
          "name": "_address",
          "type": "address"
        }
      ],
      "name": "hasEscrow",
      "outputs": [
        {
          "internalType": "bool",
          "name": "",
          "type": "bool"
        }
      ],
      "stateMutability": "view",
      "type": "function"
    },
    {
      "inputs": [
        {
          "internalType": "address",
          "name": "_child",
          "type": "address"
        }
      ],
      "name": "isChild",
      "outputs": [
        {
          "internalType": "bool",
          "name": "",
          "type": "bool"
        }
      ],
      "stateMutability": "view",
      "type": "function"
    },
    {
      "inputs": [],
      "name": "lastEscrow",
      "outputs": [
        {
          "internalType": "address",
          "name": "",
          "type": "address"
        }
      ],
      "stateMutability": "view",
      "type": "function"
    }
  ],
  "bytecode": "0x608060405234801561001057600080fd5b50604051614d43380380614d43833981810160405281019061003291906100dc565b80600360006101000a81548173ffffffffffffffffffffffffffffffffffffffff021916908373ffffffffffffffffffffffffffffffffffffffff16021790555050610109565b600080fd5b600073ffffffffffffffffffffffffffffffffffffffff82169050919050565b60006100a98261007e565b9050919050565b6100b98161009e565b81146100c457600080fd5b50565b6000815190506100d6816100b0565b92915050565b6000602082840312156100f2576100f1610079565b5b6000610100848285016100c7565b91505092915050565b614c2b806101186000396000f3fe6080604052600436106200007a5760003560e01c806361bc221a116200005557806361bc221a1462000123578063979530e61462000153578063f406294a1462000197578063fc91a89714620001cd576200007a565b8063196214d3146200007f5780633cc3e58d14620000af57806358d276f714620000df575b600080fd5b3480156200008c57600080fd5b506200009762000211565b604051620000a6919062000519565b60405180910390f35b348015620000bc57600080fd5b50620000c762000237565b604051620000d6919062000519565b60405180910390f35b348015620000ec57600080fd5b506200010b60048036038101906200010591906200057b565b6200025d565b6040516200011a9190620005ca565b60405180910390f35b3480156200013057600080fd5b506200013b620002a9565b6040516200014a919062000602565b60405180910390f35b3480156200016057600080fd5b506200017f60048036038101906200017991906200057b565b620002af565b6040516200018e919062000602565b60405180910390f35b620001b56004803603810190620001af919062000794565b620002c7565b604051620001c4919062000519565b60405180910390f35b348015620001da57600080fd5b50620001f96004803603810190620001f391906200057b565b6200047a565b604051620002089190620005ca565b60405180910390f35b600360009054906101000a900473ffffffffffffffffffffffffffffffffffffffff1681565b600260009054906101000a900473ffffffffffffffffffffffffffffffffffffffff1681565b600080600160008473ffffffffffffffffffffffffffffffffffffffff1673ffffffffffffffffffffffffffffffffffffffff1681526020019081526020016000205414159050919050565b60005481565b60016020528060005260406000206000915090505481565b600080600360009054906101000a900473ffffffffffffffffffffffffffffffffffffffff16336283d600856040516200030190620004c6565b620003109493929190620008d8565b604051809103906000f0801580156200032d573d6000803e3d6000fd5b50905060008081548092919062000344906200095b565b9190505550600054600160008373ffffffffffffffffffffffffffffffffffffffff1673ffffffffffffffffffffffffffffffffffffffff1681526020019081526020016000208190555080600260006101000a81548173ffffffffffffffffffffffffffffffffffffffff021916908373ffffffffffffffffffffffffffffffffffffffff1602179055507fdb50a9e15b4eabbc5e97186ae158f84d5f78e14d0495e4cf35386b4bed4e5a7e600360009054906101000a900473ffffffffffffffffffffffffffffffffffffffff16600260009054906101000a900473ffffffffffffffffffffffffffffffffffffffff1660405162000447929190620009a8565b60405180910390a1600260009054906101000a900473ffffffffffffffffffffffffffffffffffffffff16915050919050565b60008054600160008473ffffffffffffffffffffffffffffffffffffffff1673ffffffffffffffffffffffffffffffffffffffff16815260200190815260200160002054149050919050565b61422080620009d683390190565b600073ffffffffffffffffffffffffffffffffffffffff82169050919050565b60006200050182620004d4565b9050919050565b6200051381620004f4565b82525050565b600060208201905062000530600083018462000508565b92915050565b6000604051905090565b600080fd5b600080fd5b6200055581620004f4565b81146200056157600080fd5b50565b60008135905062000575816200054a565b92915050565b60006020828403121562000594576200059362000540565b5b6000620005a48482850162000564565b91505092915050565b60008115159050919050565b620005c481620005ad565b82525050565b6000602082019050620005e16000830184620005b9565b92915050565b6000819050919050565b620005fc81620005e7565b82525050565b6000602082019050620006196000830184620005f1565b92915050565b600080fd5b6000601f19601f8301169050919050565b7f4e487b7100000000000000000000000000000000000000000000000000000000600052604160045260246000fd5b6200066f8262000624565b810181811067ffffffffffffffff8211171562000691576200069062000635565b5b80604052505050565b6000620006a662000536565b9050620006b4828262000664565b919050565b600067ffffffffffffffff821115620006d757620006d662000635565b5b602082029050602081019050919050565b600080fd5b600062000704620006fe84620006b9565b6200069a565b905080838252602082019050602084028301858111156200072a5762000729620006e8565b5b835b8181101562000757578062000742888262000564565b8452602084019350506020810190506200072c565b5050509392505050565b600082601f8301126200077957620007786200061f565b5b81356200078b848260208601620006ed565b91505092915050565b600060208284031215620007ad57620007ac62000540565b5b600082013567ffffffffffffffff811115620007ce57620007cd62000545565b5b620007dc8482850162000761565b91505092915050565b6000620007f282620004d4565b9050919050565b6200080481620007e5565b82525050565b600081519050919050565b600082825260208201905092915050565b6000819050602082019050919050565b6200084181620004f4565b82525050565b600062000855838362000836565b60208301905092915050565b6000602082019050919050565b60006200087b826200080a565b62000887818562000815565b9350620008948362000826565b8060005b83811015620008cb578151620008af888262000847565b9750620008bc8362000861565b92505060018101905062000898565b5085935050505092915050565b6000608082019050620008ef600083018762000508565b620008fe6020830186620007f9565b6200090d6040830185620005f1565b81810360608301526200092181846200086e565b905095945050505050565b7f4e487b7100000000000000000000000000000000000000000000000000000000600052601160045260246000fd5b60006200096882620005e7565b91507fffffffffffffffffffffffffffffffffffffffffffffffffffffffffffffffff82036200099d576200099c6200092c565b5b600182019050919050565b6000604082019050620009bf600083018562000508565b620009ce602083018462000508565b939250505056fe60806040523480156200001157600080fd5b50604051620042203803806200422083398181016040528101906200003791906200060e565b83600660006101000a81548173ffffffffffffffffffffffffffffffffffffffff021916908373ffffffffffffffffffffffffffffffffffffffff16021790555060008060006101000a81548160ff02191690836005811115620000a0576200009f6200069f565b5b0217905550620000bf42836200021260201b62001d881790919060201c565b600b8190555033600260006101000a81548173ffffffffffffffffffffffffffffffffffffffff021916908373ffffffffffffffffffffffffffffffffffffffff16021790555082600360006101000a81548173ffffffffffffffffffffffffffffffffffffffff021916908373ffffffffffffffffffffffffffffffffffffffff1602179055506001600e60008573ffffffffffffffffffffffffffffffffffffffff1673ffffffffffffffffffffffffffffffffffffffff16815260200190815260200160002060006101000a81548160ff0219169083151502179055506001600e60003373ffffffffffffffffffffffffffffffffffffffff1673ffffffffffffffffffffffffffffffffffffffff16815260200190815260200160002060006101000a81548160ff02191690831515021790555062000208816200027560201b60201c565b50505050620008f1565b6000808284620002239190620006fd565b9050838110156200026b576040517f08c379a00000000000000000000000000000000000000000000000000000000081526004016200026290620007bb565b60405180910390fd5b8091505092915050565b600e60003373ffffffffffffffffffffffffffffffffffffffff1673ffffffffffffffffffffffffffffffffffffffff16815260200190815260200160002060009054906101000a900460ff1662000304576040517f08c379a0000000000000000000000000000000000000000000000000000000008152600401620002fb9062000853565b60405180910390fd5b60005b81518110156200039c576001600e60008484815181106200032d576200032c62000875565b5b602002602001015173ffffffffffffffffffffffffffffffffffffffff1673ffffffffffffffffffffffffffffffffffffffff16815260200190815260200160002060006101000a81548160ff02191690831515021790555080806200039390620008a4565b91505062000307565b5050565b6000604051905090565b600080fd5b600080fd5b600073ffffffffffffffffffffffffffffffffffffffff82169050919050565b6000620003e182620003b4565b9050919050565b620003f381620003d4565b8114620003ff57600080fd5b50565b6000815190506200041381620003e8565b92915050565b60006200042682620003b4565b9050919050565b620004388162000419565b81146200044457600080fd5b50565b60008151905062000458816200042d565b92915050565b6000819050919050565b62000473816200045e565b81146200047f57600080fd5b50565b600081519050620004938162000468565b92915050565b600080fd5b6000601f19601f8301169050919050565b7f4e487b7100000000000000000000000000000000000000000000000000000000600052604160045260246000fd5b620004e9826200049e565b810181811067ffffffffffffffff821117156200050b576200050a620004af565b5b80604052505050565b600062000520620003a0565b90506200052e8282620004de565b919050565b600067ffffffffffffffff821115620005515762000550620004af565b5b602082029050602081019050919050565b600080fd5b60006200057e620005788462000533565b62000514565b90508083825260208201905060208402830185811115620005a457620005a362000562565b5b835b81811015620005d15780620005bc888262000402565b845260208401935050602081019050620005a6565b5050509392505050565b600082601f830112620005f357620005f262000499565b5b81516200060584826020860162000567565b91505092915050565b600080600080608085870312156200062b576200062a620003aa565b5b60006200063b8782880162000402565b94505060206200064e8782880162000447565b9350506040620006618782880162000482565b925050606085015167ffffffffffffffff811115620006855762000684620003af565b5b6200069387828801620005db565b91505092959194509250565b7f4e487b7100000000000000000000000000000000000000000000000000000000600052602160045260246000fd5b7f4e487b7100000000000000000000000000000000000000000000000000000000600052601160045260246000fd5b60006200070a826200045e565b915062000717836200045e565b9250827fffffffffffffffffffffffffffffffffffffffffffffffffffffffffffffffff038211156200074f576200074e620006ce565b5b828201905092915050565b600082825260208201905092915050565b7f536166654d6174683a206164646974696f6e206f766572666c6f770000000000600082015250565b6000620007a3601b836200075a565b9150620007b0826200076b565b602082019050919050565b60006020820190508181036000830152620007d68162000794565b9050919050565b7f416464726573732063616c6c696e672063616e6e6f742061646420747275737460008201527f65642068616e646c657273000000000000000000000000000000000000000000602082015250565b60006200083b602b836200075a565b91506200084882620007dd565b604082019050919050565b600060208201905081810360008301526200086e816200082c565b9050919050565b7f4e487b7100000000000000000000000000000000000000000000000000000000600052603260045260246000fd5b6000620008b1826200045e565b91507fffffffffffffffffffffffffffffffffffffffffffffffffffffffffffffffff8203620008e657620008e5620006ce565b5b600182019050919050565b61391f80620009016000396000f3fe608060405234801561001057600080fd5b50600436106101585760003560e01c80639753e432116100c3578063cc06cfa91161007c578063cc06cfa91461035f578063d65281f01461037d578063ea8a1af0146103ad578063f17171e9146103cb578063f926657e146103fb578063fad844c11461041757610158565b80639753e4321461029b578063992d454d146102b95780639c48b102146102d75780639eb262f3146102f5578063b63d1a0014610311578063bb19d62f1461034157610158565b8063200d2ed211610115578063200d2ed214610211578063337f3f321461022f57806335a063b41461024d57806343aba9c214610257578063522e117714610275578063697e4b871461027f57610158565b80630529198f1461015d5780630f46c9aa1461017b5780630fb5a6b41461019957806312065fe0146101b757806316eebd1e146101d5578063196214d3146101f3575b600080fd5b610165610435565b604051610172919061216a565b60405180910390f35b61018361043b565b604051610190919061221e565b60405180910390f35b6101a16104c9565b6040516101ae919061216a565b60405180910390f35b6101bf6104cf565b6040516101cc919061216a565b60405180910390f35b6101dd610572565b6040516101ea9190612281565b60405180910390f35b6101fb610598565b6040516102089190612281565b60405180910390f35b6102196105be565b6040516102269190612313565b60405180910390f35b6102376105cf565b604051610244919061221e565b60405180910390f35b61025561065d565b005b61025f610825565b60405161026c919061221e565b60405180910390f35b61027d6108b3565b005b61029960048036038101906102949190612477565b610a7b565b005b6102a3610c38565b6040516102b09190612281565b60405180910390f35b6102c1610c5e565b6040516102ce9190612510565b60405180910390f35b6102df610c84565b6040516102ec919061221e565b60405180910390f35b61030f600480360381019061030a919061261f565b610d12565b005b61032b60048036038101906103269190612757565b610e33565b604051610338919061285d565b60405180910390f35b6103496115ac565b604051610356919061216a565b60405180910390f35b6103676115b2565b604051610374919061285d565b60405180910390f35b61039760048036038101906103929190612878565b6115c5565b6040516103a4919061216a565b60405180910390f35b6103b56115e9565b6040516103c2919061285d565b60405180910390f35b6103e560048036038101906103e091906128a5565b6118a7565b6040516103f2919061285d565b60405180910390f35b610415600480360381019061041091906128d2565b6118c7565b005b61041f611d62565b60405161042c9190612281565b60405180910390f35b60055481565b600a8054610448906129c6565b80601f0160208091040260200160405190810160405280929190818152602001828054610474906129c6565b80156104c15780601f10610496576101008083540402835291602001916104c1565b820191906000526020600020905b8154815290600101906020018083116104a457829003601f168201915b505050505081565b600b5481565b6000600660009054906101000a900473ffffffffffffffffffffffffffffffffffffffff1673ffffffffffffffffffffffffffffffffffffffff166370a08231306040518263ffffffff1660e01b815260040161052c9190612281565b602060405180830381865afa158015610549573d6000803e3d6000fd5b505050506040513d601f19601f8201168201806040525081019061056d9190612a0c565b905090565b600260009054906101000a900473ffffffffffffffffffffffffffffffffffffffff1681565b600660009054906101000a900473ffffffffffffffffffffffffffffffffffffffff1681565b60008054906101000a900460ff1681565b600880546105dc906129c6565b80601f0160208091040260200160405190810160405280929190818152602001828054610608906129c6565b80156106555780601f1061062a57610100808354040283529160200191610655565b820191906000526020600020905b81548152906001019060200180831161063857829003601f168201915b505050505081565b600e60003373ffffffffffffffffffffffffffffffffffffffff1673ffffffffffffffffffffffffffffffffffffffff16815260200190815260200160002060009054906101000a900460ff166106e9576040517f08c379a00000000000000000000000000000000000000000000000000000000081526004016106e090612a85565b60405180910390fd5b600460058111156106fd576106fc61229c565b5b60008054906101000a900460ff16600581111561071d5761071c61229c565b5b0361075d576040517f08c379a000000000000000000000000000000000000000000000000000000000815260040161075490612af1565b60405180910390fd5b600360058111156107715761077061229c565b5b60008054906101000a900460ff1660058111156107915761079061229c565b5b036107d1576040517f08c379a00000000000000000000000000000000000000000000000000000000081526004016107c890612b5d565b60405180910390fd5b60006107db6104cf565b146107ea576107e86115e9565b505b600360009054906101000a900473ffffffffffffffffffffffffffffffffffffffff1673ffffffffffffffffffffffffffffffffffffffff16ff5b60098054610832906129c6565b80601f016020809104026020016040519081016040528092919081815260200182805461085e906129c6565b80156108ab5780601f10610880576101008083540402835291602001916108ab565b820191906000526020600020905b81548152906001019060200180831161088e57829003601f168201915b505050505081565b42600b54116108f7576040517f08c379a00000000000000000000000000000000000000000000000000000000081526004016108ee90612bc9565b60405180910390fd5b600060019054906101000a900473ffffffffffffffffffffffffffffffffffffffff1673ffffffffffffffffffffffffffffffffffffffff163373ffffffffffffffffffffffffffffffffffffffff16148061099c5750600e60003373ffffffffffffffffffffffffffffffffffffffff1673ffffffffffffffffffffffffffffffffffffffff16815260200190815260200160002060009054906101000a900460ff165b6109db576040517f08c379a00000000000000000000000000000000000000000000000000000000081526004016109d290612c35565b60405180910390fd5b600360058111156109ef576109ee61229c565b5b60008054906101000a900460ff166005811115610a0f57610a0e61229c565b5b14610a4f576040517f08c379a0000000000000000000000000000000000000000000000000000000008152600401610a4690612ca1565b60405180910390fd5b60046000806101000a81548160ff02191690836005811115610a7457610a7361229c565b5b0217905550565b600e60003373ffffffffffffffffffffffffffffffffffffffff1673ffffffffffffffffffffffffffffffffffffffff16815260200190815260200160002060009054906101000a900460ff16610b07576040517f08c379a0000000000000000000000000000000000000000000000000000000008152600401610afe90612a85565b60405180910390fd5b42600b5411610b4b576040517f08c379a0000000000000000000000000000000000000000000000000000000008152600401610b4290612bc9565b60405180910390fd5b60016005811115610b5f57610b5e61229c565b5b60008054906101000a900460ff166005811115610b7f57610b7e61229c565b5b1480610bbc575060026005811115610b9a57610b9961229c565b5b60008054906101000a900460ff166005811115610bba57610bb961229c565b5b145b610bfb576040517f08c379a0000000000000000000000000000000000000000000000000000000008152600401610bf290612d33565b60405180910390fd5b7fb20e0717219840fd5684a80bec782e8babb56ea224f677561b791a61192605c18282604051610c2c929190612d53565b60405180910390a15050565b600160009054906101000a900473ffffffffffffffffffffffffffffffffffffffff1681565b600360009054906101000a900473ffffffffffffffffffffffffffffffffffffffff1681565b60078054610c91906129c6565b80601f0160208091040260200160405190810160405280929190818152602001828054610cbd906129c6565b8015610d0a5780601f10610cdf57610100808354040283529160200191610d0a565b820191906000526020600020905b815481529060010190602001808311610ced57829003601f168201915b505050505081565b600e60003373ffffffffffffffffffffffffffffffffffffffff1673ffffffffffffffffffffffffffffffffffffffff16815260200190815260200160002060009054906101000a900460ff16610d9e576040517f08c379a0000000000000000000000000000000000000000000000000000000008152600401610d9590612dfc565b60405180910390fd5b60005b8151811015610e2f576001600e6000848481518110610dc357610dc2612e1c565b5b602002602001015173ffffffffffffffffffffffffffffffffffffffff1673ffffffffffffffffffffffffffffffffffffffff16815260200190815260200160002060006101000a81548160ff0219169083151502179055508080610e2790612e7a565b915050610da1565b5050565b6000600e60003373ffffffffffffffffffffffffffffffffffffffff1673ffffffffffffffffffffffffffffffffffffffff16815260200190815260200160002060009054906101000a900460ff16610ec1576040517f08c379a0000000000000000000000000000000000000000000000000000000008152600401610eb890612a85565b60405180910390fd5b6000610ecb6104cf565b03610f0b576040517f08c379a0000000000000000000000000000000000000000000000000000000008152600401610f0290612f0e565b60405180910390fd5b60006005811115610f1f57610f1e61229c565b5b60008054906101000a900460ff166005811115610f3f57610f3e61229c565b5b03610f7f576040517f08c379a0000000000000000000000000000000000000000000000000000000008152600401610f7690612f7a565b60405180910390fd5b60036005811115610f9357610f9261229c565b5b60008054906101000a900460ff166005811115610fb357610fb261229c565b5b03610ff3576040517f08c379a0000000000000000000000000000000000000000000000000000000008152600401610fea90612b5d565b60405180910390fd5b42600b5411611037576040517f08c379a000000000000000000000000000000000000000000000000000000000815260040161102e90612bc9565b60405180910390fd5b845186511461107b576040517f08c379a00000000000000000000000000000000000000000000000000000000081526004016110729061300c565b60405180910390fd5b606463ffffffff168651106110c5576040517f08c379a00000000000000000000000000000000000000000000000000000000081526004016110bc90613078565b60405180910390fd5b60006110cf6104cf565b90506000600d60006101000a81548160ff0219169083151502179055506000805b87518110156111345787818151811061110c5761110b612e1c565b5b60200260200101518261111f9190613098565b9150808061112c90612e7a565b9150506110f0565b506b033b2e3c9fd0803ce80000008110611183576040517f08c379a000000000000000000000000000000000000000000000000000000000815260040161117a9061313a565b60405180910390fd5b808210156111a457600d60009054906101000a900460ff16925050506115a3565b60008086511415806111b857506000875114155b905080156111e15786600990816111cf9190613306565b5085600a90816111df9190613306565b505b6000806111ed8a611de6565b915091506000600660009054906101000a900473ffffffffffffffffffffffffffffffffffffffff16905060005b8c518110156112ec578173ffffffffffffffffffffffffffffffffffffffff1663a9059cbb8e838151811061125357611252612e1c565b5b6020026020010151600c848154811061126f5761126e612e1c565b5b90600052602060002001546040518363ffffffff1660e01b81526004016112979291906133d8565b6020604051808303816000875af11580156112b6573d6000803e3d6000fd5b505050506040513d601f19601f820116820180604052508101906112da919061342d565b50806112e590612e7a565b905061121b565b50600c60006112fb9190612113565b8073ffffffffffffffffffffffffffffffffffffffff1663a9059cbb600060019054906101000a900473ffffffffffffffffffffffffffffffffffffffff16856040518363ffffffff1660e01b81526004016113589291906133d8565b6020604051808303816000875af1158015611377573d6000803e3d6000fd5b505050506040513d601f19601f8201168201806040525081019061139b919061342d565b801561144357508073ffffffffffffffffffffffffffffffffffffffff1663a9059cbb600160009054906101000a900473ffffffffffffffffffffffffffffffffffffffff16846040518363ffffffff1660e01b81526004016113ff9291906133d8565b6020604051808303816000875af115801561141e573d6000803e3d6000fd5b505050506040513d601f19601f82011682018060405250810190611442919061342d565b5b600d60006101000a81548160ff0219169083151502179055506114646104cf565b9550600d60009054906101000a900460ff1615611551576001600581111561148f5761148e61229c565b5b60008054906101000a900460ff1660058111156114af576114ae61229c565b5b036114df5760026000806101000a81548160ff021916908360058111156114d9576114d861229c565b5b02179055505b6000861480156115205750600260058111156114fe576114fd61229c565b5b60008054906101000a900460ff16600581111561151e5761151d61229c565b5b145b156115505760036000806101000a81548160ff0219169083600581111561154a5761154961229c565b5b02179055505b5b877f8ed71c3a6fb899bfe96968ade5a4119b380c0d642a775106eb80aa795450777e8d51604051611582919061216a565b60405180910390a2600d60009054906101000a900460ff1696505050505050505b95945050505050565b60045481565b600d60009054906101000a900460ff1681565b600c81815481106115d557600080fd5b906000526020600020016000915090505481565b6000600e60003373ffffffffffffffffffffffffffffffffffffffff1673ffffffffffffffffffffffffffffffffffffffff16815260200190815260200160002060009054906101000a900460ff16611677576040517f08c379a000000000000000000000000000000000000000000000000000000000815260040161166e90612a85565b60405180910390fd5b60006116816104cf565b036116c1576040517f08c379a00000000000000000000000000000000000000000000000000000000081526004016116b890612f0e565b60405180910390fd5b600460058111156116d5576116d461229c565b5b60008054906101000a900460ff1660058111156116f5576116f461229c565b5b03611735576040517f08c379a000000000000000000000000000000000000000000000000000000000815260040161172c90612af1565b60405180910390fd5b600360058111156117495761174861229c565b5b60008054906101000a900460ff1660058111156117695761176861229c565b5b036117a9576040517f08c379a00000000000000000000000000000000000000000000000000000000081526004016117a090612b5d565b60405180910390fd5b6000600660009054906101000a900473ffffffffffffffffffffffffffffffffffffffff1673ffffffffffffffffffffffffffffffffffffffff1663a9059cbb600360009054906101000a900473ffffffffffffffffffffffffffffffffffffffff166118146104cf565b6040518363ffffffff1660e01b81526004016118319291906134af565b6020604051808303816000875af1158015611850573d6000803e3d6000fd5b505050506040513d601f19601f82011682018060405250810190611874919061342d565b905060056000806101000a81548160ff0219169083600581111561189b5761189a61229c565b5b02179055508091505090565b600e6020528060005260406000206000915054906101000a900460ff1681565b600e60003373ffffffffffffffffffffffffffffffffffffffff1673ffffffffffffffffffffffffffffffffffffffff16815260200190815260200160002060009054906101000a900460ff16611953576040517f08c379a000000000000000000000000000000000000000000000000000000000815260040161194a90612a85565b60405180910390fd5b42600b5411611997576040517f08c379a000000000000000000000000000000000000000000000000000000000815260040161198e90612bc9565b60405180910390fd5b600073ffffffffffffffffffffffffffffffffffffffff168673ffffffffffffffffffffffffffffffffffffffff1603611a06576040517f08c379a00000000000000000000000000000000000000000000000000000000081526004016119fd90613524565b60405180910390fd5b600073ffffffffffffffffffffffffffffffffffffffff168573ffffffffffffffffffffffffffffffffffffffff1603611a75576040517f08c379a0000000000000000000000000000000000000000000000000000000008152600401611a6c90613524565b60405180910390fd5b6000611a8a8486611d8890919063ffffffff16565b905060008110158015611a9e575060648111155b611add576040517f08c379a0000000000000000000000000000000000000000000000000000000008152600401611ad490613590565b60405180910390fd5b60006005811115611af157611af061229c565b5b60008054906101000a900460ff166005811115611b1157611b1061229c565b5b14611b51576040517f08c379a0000000000000000000000000000000000000000000000000000000008152600401611b4890613622565b60405180910390fd5b86600060016101000a81548173ffffffffffffffffffffffffffffffffffffffff021916908373ffffffffffffffffffffffffffffffffffffffff16021790555085600160006101000a81548173ffffffffffffffffffffffffffffffffffffffff021916908373ffffffffffffffffffffffffffffffffffffffff1602179055506001600e60008060019054906101000a900473ffffffffffffffffffffffffffffffffffffffff1673ffffffffffffffffffffffffffffffffffffffff1673ffffffffffffffffffffffffffffffffffffffff16815260200190815260200160002060006101000a81548160ff0219169083151502179055506001600e6000600160009054906101000a900473ffffffffffffffffffffffffffffffffffffffff1673ffffffffffffffffffffffffffffffffffffffff1673ffffffffffffffffffffffffffffffffffffffff16815260200190815260200160002060006101000a81548160ff02191690831515021790555084600481905550836005819055508260079081611ce39190613306565b508160089081611cf39190613306565b5060016000806101000a81548160ff02191690836005811115611d1957611d1861229c565b5b02179055507f8ec464ac0c8e44e17130cd1ffb09967fa6f2c33339289678a59ea0112cfc2aa960076008604051611d519291906136c6565b60405180910390a150505050505050565b600060019054906101000a900473ffffffffffffffffffffffffffffffffffffffff1681565b6000808284611d979190613098565b905083811015611ddc576040517f08c379a0000000000000000000000000000000000000000000000000000000008152600401611dd390613749565b60405180910390fd5b8091505092915050565b60008060008060005b8551811015611f30576000611e3c6064611e2e898581518110611e1557611e14612e1c565b5b6020026020010151600454611f3e90919063ffffffff16565b611fb890919063ffffffff16565b90506000611e826064611e748a8681518110611e5b57611e5a612e1c565b5b6020026020010151600554611f3e90919063ffffffff16565b611fb890919063ffffffff16565b90506000611ec582611eb7858c8881518110611ea157611ea0612e1c565b5b602002602001015161200290919063ffffffff16565b61200290919063ffffffff16565b9050611eda8387611d8890919063ffffffff16565b9550611eef8286611d8890919063ffffffff16565b9450600c8190806001815401808255809150506001900390600052602060002001600090919091909150555050508080611f2890612e7a565b915050611def565b508181935093505050915091565b6000808303611f505760009050611fb2565b60008284611f5e9190613769565b9050828482611f6d91906137f2565b14611fad576040517f08c379a0000000000000000000000000000000000000000000000000000000008152600401611fa490613895565b60405180910390fd5b809150505b92915050565b6000611ffa83836040518060400160405280601a81526020017f536166654d6174683a206469766973696f6e206279207a65726f00000000000081525061204c565b905092915050565b600061204483836040518060400160405280601e81526020017f536166654d6174683a207375627472616374696f6e206f766572666c6f7700008152506120af565b905092915050565b60008083118290612093576040517f08c379a000000000000000000000000000000000000000000000000000000000815260040161208a919061221e565b60405180910390fd5b50600083856120a291906137f2565b9050809150509392505050565b60008383111582906120f7576040517f08c379a00000000000000000000000000000000000000000000000000000000081526004016120ee919061221e565b60405180910390fd5b506000838561210691906138b5565b9050809150509392505050565b50805460008255906000526020600020908101906121319190612134565b50565b5b8082111561214d576000816000905550600101612135565b5090565b6000819050919050565b61216481612151565b82525050565b600060208201905061217f600083018461215b565b92915050565b600081519050919050565b600082825260208201905092915050565b60005b838110156121bf5780820151818401526020810190506121a4565b838111156121ce576000848401525b50505050565b6000601f19601f8301169050919050565b60006121f082612185565b6121fa8185612190565b935061220a8185602086016121a1565b612213816121d4565b840191505092915050565b6000602082019050818103600083015261223881846121e5565b905092915050565b600073ffffffffffffffffffffffffffffffffffffffff82169050919050565b600061226b82612240565b9050919050565b61227b81612260565b82525050565b60006020820190506122966000830184612272565b92915050565b7f4e487b7100000000000000000000000000000000000000000000000000000000600052602160045260246000fd5b600681106122dc576122db61229c565b5b50565b60008190506122ed826122cb565b919050565b60006122fd826122df565b9050919050565b61230d816122f2565b82525050565b60006020820190506123286000830184612304565b92915050565b6000604051905090565b600080fd5b600080fd5b600080fd5b600080fd5b7f4e487b7100000000000000000000000000000000000000000000000000000000600052604160045260246000fd5b612384826121d4565b810181811067ffffffffffffffff821117156123a3576123a261234c565b5b80604052505050565b60006123b661232e565b90506123c2828261237b565b919050565b600067ffffffffffffffff8211156123e2576123e161234c565b5b6123eb826121d4565b9050602081019050919050565b82818337600083830152505050565b600061241a612415846123c7565b6123ac565b90508281526020810184848401111561243657612435612347565b5b6124418482856123f8565b509392505050565b600082601f83011261245e5761245d612342565b5b813561246e848260208601612407565b91505092915050565b6000806040838503121561248e5761248d612338565b5b600083013567ffffffffffffffff8111156124ac576124ab61233d565b5b6124b885828601612449565b925050602083013567ffffffffffffffff8111156124d9576124d861233d565b5b6124e585828601612449565b9150509250929050565b60006124fa82612240565b9050919050565b61250a816124ef565b82525050565b60006020820190506125256000830184612501565b92915050565b600067ffffffffffffffff8211156125465761254561234c565b5b602082029050602081019050919050565b600080fd5b61256581612260565b811461257057600080fd5b50565b6000813590506125828161255c565b92915050565b600061259b6125968461252b565b6123ac565b905080838252602082019050602084028301858111156125be576125bd612557565b5b835b818110156125e757806125d38882612573565b8452602084019350506020810190506125c0565b5050509392505050565b600082601f83011261260657612605612342565b5b8135612616848260208601612588565b91505092915050565b60006020828403121561263557612634612338565b5b600082013567ffffffffffffffff8111156126535761265261233d565b5b61265f848285016125f1565b91505092915050565b600067ffffffffffffffff8211156126835761268261234c565b5b602082029050602081019050919050565b61269d81612151565b81146126a857600080fd5b50565b6000813590506126ba81612694565b92915050565b60006126d36126ce84612668565b6123ac565b905080838252602082019050602084028301858111156126f6576126f5612557565b5b835b8181101561271f578061270b88826126ab565b8452602084019350506020810190506126f8565b5050509392505050565b600082601f83011261273e5761273d612342565b5b813561274e8482602086016126c0565b91505092915050565b600080600080600060a0868803121561277357612772612338565b5b600086013567ffffffffffffffff8111156127915761279061233d565b5b61279d888289016125f1565b955050602086013567ffffffffffffffff8111156127be576127bd61233d565b5b6127ca88828901612729565b945050604086013567ffffffffffffffff8111156127eb576127ea61233d565b5b6127f788828901612449565b935050606086013567ffffffffffffffff8111156128185761281761233d565b5b61282488828901612449565b9250506080612835888289016126ab565b9150509295509295909350565b60008115159050919050565b61285781612842565b82525050565b6000602082019050612872600083018461284e565b92915050565b60006020828403121561288e5761288d612338565b5b600061289c848285016126ab565b91505092915050565b6000602082840312156128bb576128ba612338565b5b60006128c984828501612573565b91505092915050565b60008060008060008060c087890312156128ef576128ee612338565b5b60006128fd89828a01612573565b965050602061290e89828a01612573565b955050604061291f89828a016126ab565b945050606061293089828a016126ab565b935050608087013567ffffffffffffffff8111156129515761295061233d565b5b61295d89828a01612449565b92505060a087013567ffffffffffffffff81111561297e5761297d61233d565b5b61298a89828a01612449565b9150509295509295509295565b7f4e487b7100000000000000000000000000000000000000000000000000000000600052602260045260246000fd5b600060028204905060018216806129de57607f821691505b6020821081036129f1576129f0612997565b5b50919050565b600081519050612a0681612694565b92915050565b600060208284031215612a2257612a21612338565b5b6000612a30848285016129f7565b91505092915050565b7f416464726573732063616c6c696e67206e6f7420747275737465640000000000600082015250565b6000612a6f601b83612190565b9150612a7a82612a39565b602082019050919050565b60006020820190508181036000830152612a9e81612a62565b9050919050565b7f457363726f7720696e20436f6d706c6574652073746174757320737461746500600082015250565b6000612adb601f83612190565b9150612ae682612aa5565b602082019050919050565b60006020820190508181036000830152612b0a81612ace565b9050919050565b7f457363726f7720696e2050616964207374617475732073746174650000000000600082015250565b6000612b47601b83612190565b9150612b5282612b11565b602082019050919050565b60006020820190508181036000830152612b7681612b3a565b9050919050565b7f436f6e7472616374206578706972656400000000000000000000000000000000600082015250565b6000612bb3601083612190565b9150612bbe82612b7d565b602082019050919050565b60006020820190508181036000830152612be281612ba6565b9050919050565b7f416464726573732063616c6c696e67206973206e6f7420747275737465640000600082015250565b6000612c1f601e83612190565b9150612c2a82612be9565b602082019050919050565b60006020820190508181036000830152612c4e81612c12565b9050919050565b7f457363726f77206e6f7420696e20506169642073746174650000000000000000600082015250565b6000612c8b601883612190565b9150612c9682612c55565b602082019050919050565b60006020820190508181036000830152612cba81612c7e565b9050919050565b7f457363726f77206e6f7420696e2050656e64696e67206f72205061727469616c60008201527f2073746174757320737461746500000000000000000000000000000000000000602082015250565b6000612d1d602d83612190565b9150612d2882612cc1565b604082019050919050565b60006020820190508181036000830152612d4c81612d10565b9050919050565b60006040820190508181036000830152612d6d81856121e5565b90508181036020830152612d8181846121e5565b90509392505050565b7f416464726573732063616c6c696e672063616e6e6f742061646420747275737460008201527f65642068616e646c657273000000000000000000000000000000000000000000602082015250565b6000612de6602b83612190565b9150612df182612d8a565b604082019050919050565b60006020820190508181036000830152612e1581612dd9565b9050919050565b7f4e487b7100000000000000000000000000000000000000000000000000000000600052603260045260246000fd5b7f4e487b7100000000000000000000000000000000000000000000000000000000600052601160045260246000fd5b6000612e8582612151565b91507fffffffffffffffffffffffffffffffffffffffffffffffffffffffffffffffff8203612eb757612eb6612e4b565b5b600182019050919050565b7f454950323020636f6e7472616374206f7574206f662066756e64730000000000600082015250565b6000612ef8601b83612190565b9150612f0382612ec2565b602082019050919050565b60006020820190508181036000830152612f2781612eeb565b9050919050565b7f457363726f7720696e204c61756e636865642073746174757320737461746500600082015250565b6000612f64601f83612190565b9150612f6f82612f2e565b602082019050919050565b60006020820190508181036000830152612f9381612f57565b9050919050565b7f416d6f756e74206f6620726563697069656e747320616e642076616c7565732060008201527f646f6e2774206d61746368000000000000000000000000000000000000000000602082015250565b6000612ff6602b83612190565b915061300182612f9a565b604082019050919050565b6000602082019050818103600083015261302581612fe9565b9050919050565b7f546f6f206d616e7920726563697069656e747300000000000000000000000000600082015250565b6000613062601383612190565b915061306d8261302c565b602082019050919050565b6000602082019050818103600083015261309181613055565b9050919050565b60006130a382612151565b91506130ae83612151565b9250827fffffffffffffffffffffffffffffffffffffffffffffffffffffffffffffffff038211156130e3576130e2612e4b565b5b828201905092915050565b7f42756c6b2076616c756520746f6f206869676800000000000000000000000000600082015250565b6000613124601383612190565b915061312f826130ee565b602082019050919050565b6000602082019050818103600083015261315381613117565b9050919050565b60008190508160005260206000209050919050565b60006020601f8301049050919050565b600082821b905092915050565b6000600883026131bc7fffffffffffffffffffffffffffffffffffffffffffffffffffffffffffffffff8261317f565b6131c6868361317f565b95508019841693508086168417925050509392505050565b6000819050919050565b60006132036131fe6131f984612151565b6131de565b612151565b9050919050565b6000819050919050565b61321d836131e8565b6132316132298261320a565b84845461318c565b825550505050565b600090565b613246613239565b613251818484613214565b505050565b5b818110156132755761326a60008261323e565b600181019050613257565b5050565b601f8211156132ba5761328b8161315a565b6132948461316f565b810160208510156132a3578190505b6132b76132af8561316f565b830182613256565b50505b505050565b600082821c905092915050565b60006132dd600019846008026132bf565b1980831691505092915050565b60006132f683836132cc565b9150826002028217905092915050565b61330f82612185565b67ffffffffffffffff8111156133285761332761234c565b5b61333282546129c6565b61333d828285613279565b600060209050601f831160018114613370576000841561335e578287015190505b61336885826132ea565b8655506133d0565b601f19841661337e8661315a565b60005b828110156133a657848901518255600182019150602085019450602081019050613381565b868310156133c357848901516133bf601f8916826132cc565b8355505b6001600288020188555050505b505050505050565b60006040820190506133ed6000830185612272565b6133fa602083018461215b565b9392505050565b61340a81612842565b811461341557600080fd5b50565b60008151905061342781613401565b92915050565b60006020828403121561344357613442612338565b5b600061345184828501613418565b91505092915050565b600061347561347061346b84612240565b6131de565b612240565b9050919050565b60006134878261345a565b9050919050565b60006134998261347c565b9050919050565b6134a98161348e565b82525050565b60006040820190506134c460008301856134a0565b6134d1602083018461215b565b9392505050565b7f496e76616c6964206f72206d697373696e6720746f6b656e207370656e646572600082015250565b600061350e602083612190565b9150613519826134d8565b602082019050919050565b6000602082019050818103600083015261353d81613501565b9050919050565b7f5374616b65206f7574206f6620626f756e647300000000000000000000000000600082015250565b600061357a601383612190565b915061358582613544565b602082019050919050565b600060208201905081810360008301526135a98161356d565b9050919050565b7f457363726f77206e6f7420696e204c61756e636865642073746174757320737460008201527f6174650000000000000000000000000000000000000000000000000000000000602082015250565b600061360c602383612190565b9150613617826135b0565b604082019050919050565b6000602082019050818103600083015261363b816135ff565b9050919050565b6000815461364f816129c6565b6136598186612190565b94506001821660008114613674576001811461368a576136bd565b60ff1983168652811515602002860193506136bd565b6136938561315a565b60005b838110156136b557815481890152600182019150602081019050613696565b808801955050505b50505092915050565b600060408201905081810360008301526136e08185613642565b905081810360208301526136f48184613642565b90509392505050565b7f536166654d6174683a206164646974696f6e206f766572666c6f770000000000600082015250565b6000613733601b83612190565b915061373e826136fd565b602082019050919050565b6000602082019050818103600083015261376281613726565b9050919050565b600061377482612151565b915061377f83612151565b9250817fffffffffffffffffffffffffffffffffffffffffffffffffffffffffffffffff04831182151516156137b8576137b7612e4b565b5b828202905092915050565b7f4e487b7100000000000000000000000000000000000000000000000000000000600052601260045260246000fd5b60006137fd82612151565b915061380883612151565b925082613818576138176137c3565b5b828204905092915050565b7f536166654d6174683a206d756c7469706c69636174696f6e206f766572666c6f60008201527f7700000000000000000000000000000000000000000000000000000000000000602082015250565b600061387f602183612190565b915061388a82613823565b604082019050919050565b600060208201905081810360008301526138ae81613872565b9050919050565b60006138c082612151565b91506138cb83612151565b9250828210156138de576138dd612e4b565b5b82820390509291505056fea26469706673582212201c4aea74864153d087e84fd99150267b8cf30072f899c8ac113836bc9c3f72cc64736f6c634300080f0033a2646970667358221220e4935917b7e1a40e5d493c1b76598352fa57b69dfe6fe80ebb44c0c5275af19364736f6c634300080f0033",
  "linkReferences": {},
  "deployedLinkReferences": {}
}