{
  "_format": "hh-sol-artifact-1",
  "contractName": "HMToken",
  "sourceName": "contracts/HMToken.sol",
  "abi": [
    {
      "inputs": [
        {
          "internalType": "uint256",
          "name": "_totalSupply",
          "type": "uint256"
        },
        {
          "internalType": "string",
          "name": "_name",
          "type": "string"
        },
        {
          "internalType": "uint8",
          "name": "_decimals",
          "type": "uint8"
        },
        {
          "internalType": "string",
          "name": "_symbol",
          "type": "string"
        }
      ],
      "stateMutability": "nonpayable",
      "type": "constructor"
    },
    {
      "anonymous": false,
      "inputs": [
        {
          "indexed": true,
          "internalType": "address",
          "name": "_owner",
          "type": "address"
        },
        {
          "indexed": true,
          "internalType": "address",
          "name": "_spender",
          "type": "address"
        },
        {
          "indexed": false,
          "internalType": "uint256",
          "name": "_value",
          "type": "uint256"
        }
      ],
      "name": "Approval",
      "type": "event"
    },
    {
      "anonymous": false,
      "inputs": [
        {
          "indexed": true,
          "internalType": "uint256",
          "name": "_txId",
          "type": "uint256"
        },
        {
          "indexed": false,
          "internalType": "uint256",
          "name": "_bulkCount",
          "type": "uint256"
        }
      ],
      "name": "BulkApproval",
      "type": "event"
    },
    {
      "anonymous": false,
      "inputs": [
        {
          "indexed": true,
          "internalType": "uint256",
          "name": "_txId",
          "type": "uint256"
        },
        {
          "indexed": false,
          "internalType": "uint256",
          "name": "_bulkCount",
          "type": "uint256"
        }
      ],
      "name": "BulkTransfer",
      "type": "event"
    },
    {
      "anonymous": false,
      "inputs": [
        {
          "indexed": true,
          "internalType": "address",
          "name": "_from",
          "type": "address"
        },
        {
          "indexed": true,
          "internalType": "address",
          "name": "_to",
          "type": "address"
        },
        {
          "indexed": false,
          "internalType": "uint256",
          "name": "_value",
          "type": "uint256"
        }
      ],
      "name": "Transfer",
      "type": "event"
    },
    {
      "inputs": [
        {
          "internalType": "address",
          "name": "_owner",
          "type": "address"
        },
        {
          "internalType": "address",
          "name": "_spender",
          "type": "address"
        }
      ],
      "name": "allowance",
      "outputs": [
        {
          "internalType": "uint256",
          "name": "remaining",
          "type": "uint256"
        }
      ],
      "stateMutability": "view",
      "type": "function"
    },
    {
      "inputs": [
        {
          "internalType": "address",
          "name": "_spender",
          "type": "address"
        },
        {
          "internalType": "uint256",
          "name": "_value",
          "type": "uint256"
        }
      ],
      "name": "approve",
      "outputs": [
        {
          "internalType": "bool",
          "name": "success",
          "type": "bool"
        }
      ],
      "stateMutability": "nonpayable",
      "type": "function"
    },
    {
      "inputs": [
        {
          "internalType": "address[]",
          "name": "_spenders",
          "type": "address[]"
        },
        {
          "internalType": "uint256[]",
          "name": "_values",
          "type": "uint256[]"
        },
        {
          "internalType": "uint256",
          "name": "_txId",
          "type": "uint256"
        }
      ],
      "name": "approveBulk",
      "outputs": [
        {
          "internalType": "uint256",
          "name": "_bulkCount",
          "type": "uint256"
        }
      ],
      "stateMutability": "nonpayable",
      "type": "function"
    },
    {
      "inputs": [
        {
          "internalType": "address",
          "name": "_owner",
          "type": "address"
        }
      ],
      "name": "balanceOf",
      "outputs": [
        {
          "internalType": "uint256",
          "name": "balance",
          "type": "uint256"
        }
      ],
      "stateMutability": "view",
      "type": "function"
    },
    {
      "inputs": [],
      "name": "decimals",
      "outputs": [
        {
          "internalType": "uint8",
          "name": "",
          "type": "uint8"
        }
      ],
      "stateMutability": "view",
      "type": "function"
    },
    {
      "inputs": [
        {
          "internalType": "address",
          "name": "_spender",
          "type": "address"
        },
        {
          "internalType": "uint256",
          "name": "_delta",
          "type": "uint256"
        }
      ],
      "name": "decreaseApproval",
      "outputs": [
        {
          "internalType": "bool",
          "name": "success",
          "type": "bool"
        }
      ],
      "stateMutability": "nonpayable",
      "type": "function"
    },
    {
      "inputs": [
        {
          "internalType": "address",
          "name": "_spender",
          "type": "address"
        },
        {
          "internalType": "uint256",
          "name": "_delta",
          "type": "uint256"
        }
      ],
      "name": "increaseApproval",
      "outputs": [
        {
          "internalType": "bool",
          "name": "success",
          "type": "bool"
        }
      ],
      "stateMutability": "nonpayable",
      "type": "function"
    },
    {
      "inputs": [],
      "name": "name",
      "outputs": [
        {
          "internalType": "string",
          "name": "",
          "type": "string"
        }
      ],
      "stateMutability": "view",
      "type": "function"
    },
    {
      "inputs": [],
      "name": "symbol",
      "outputs": [
        {
          "internalType": "string",
          "name": "",
          "type": "string"
        }
      ],
      "stateMutability": "view",
      "type": "function"
    },
    {
      "inputs": [],
      "name": "totalSupply",
      "outputs": [
        {
          "internalType": "uint256",
          "name": "",
          "type": "uint256"
        }
      ],
      "stateMutability": "view",
      "type": "function"
    },
    {
      "inputs": [
        {
          "internalType": "address",
          "name": "_to",
          "type": "address"
        },
        {
          "internalType": "uint256",
          "name": "_value",
          "type": "uint256"
        }
      ],
      "name": "transfer",
      "outputs": [
        {
          "internalType": "bool",
          "name": "success",
          "type": "bool"
        }
      ],
      "stateMutability": "nonpayable",
      "type": "function"
    },
    {
      "inputs": [
        {
          "internalType": "address[]",
          "name": "_tos",
          "type": "address[]"
        },
        {
          "internalType": "uint256[]",
          "name": "_values",
          "type": "uint256[]"
        },
        {
          "internalType": "uint256",
          "name": "_txId",
          "type": "uint256"
        }
      ],
      "name": "transferBulk",
      "outputs": [
        {
          "internalType": "uint256",
          "name": "_bulkCount",
          "type": "uint256"
        }
      ],
      "stateMutability": "nonpayable",
      "type": "function"
    },
    {
      "inputs": [
        {
          "internalType": "address",
          "name": "_spender",
          "type": "address"
        },
        {
          "internalType": "address",
          "name": "_to",
          "type": "address"
        },
        {
          "internalType": "uint256",
          "name": "_value",
          "type": "uint256"
        }
      ],
      "name": "transferFrom",
      "outputs": [
        {
          "internalType": "bool",
          "name": "success",
          "type": "bool"
        }
      ],
      "stateMutability": "nonpayable",
      "type": "function"
    }
  ],
  "bytecode": "0x60806040523480156200001157600080fd5b5060405162002e9838038062002e98833981810160405281019062000037919062000301565b8160ff16600a62000049919062000534565b8462000056919062000585565b60008190555082600390816200006d919062000827565b5081600460006101000a81548160ff021916908360ff16021790555080600590816200009a919062000827565b50600054600160003373ffffffffffffffffffffffffffffffffffffffff1673ffffffffffffffffffffffffffffffffffffffff16815260200190815260200160002081905550505050506200090e565b6000604051905090565b600080fd5b600080fd5b6000819050919050565b6200011481620000ff565b81146200012057600080fd5b50565b600081519050620001348162000109565b92915050565b600080fd5b600080fd5b6000601f19601f8301169050919050565b7f4e487b7100000000000000000000000000000000000000000000000000000000600052604160045260246000fd5b6200018f8262000144565b810181811067ffffffffffffffff82111715620001b157620001b062000155565b5b80604052505050565b6000620001c6620000eb565b9050620001d4828262000184565b919050565b600067ffffffffffffffff821115620001f757620001f662000155565b5b620002028262000144565b9050602081019050919050565b60005b838110156200022f57808201518184015260208101905062000212565b838111156200023f576000848401525b50505050565b60006200025c6200025684620001d9565b620001ba565b9050828152602081018484840111156200027b576200027a6200013f565b5b620002888482856200020f565b509392505050565b600082601f830112620002a857620002a76200013a565b5b8151620002ba84826020860162000245565b91505092915050565b600060ff82169050919050565b620002db81620002c3565b8114620002e757600080fd5b50565b600081519050620002fb81620002d0565b92915050565b600080600080608085870312156200031e576200031d620000f5565b5b60006200032e8782880162000123565b945050602085015167ffffffffffffffff811115620003525762000351620000fa565b5b620003608782880162000290565b93505060406200037387828801620002ea565b925050606085015167ffffffffffffffff811115620003975762000396620000fa565b5b620003a58782880162000290565b91505092959194509250565b7f4e487b7100000000000000000000000000000000000000000000000000000000600052601160045260246000fd5b60008160011c9050919050565b6000808291508390505b60018511156200043f57808604811115620004175762000416620003b1565b5b6001851615620004275780820291505b80810290506200043785620003e0565b9450620003f7565b94509492505050565b6000826200045a57600190506200052d565b816200046a57600090506200052d565b81600181146200048357600281146200048e57620004c4565b60019150506200052d565b60ff841115620004a357620004a2620003b1565b5b8360020a915084821115620004bd57620004bc620003b1565b5b506200052d565b5060208310610133831016604e8410600b8410161715620004fe5782820a905083811115620004f857620004f7620003b1565b5b6200052d565b6200050d8484846001620003ed565b92509050818404811115620005275762000526620003b1565b5b81810290505b9392505050565b60006200054182620000ff565b91506200054e83620000ff565b92506200057d7fffffffffffffffffffffffffffffffffffffffffffffffffffffffffffffffff848462000448565b905092915050565b60006200059282620000ff565b91506200059f83620000ff565b9250817fffffffffffffffffffffffffffffffffffffffffffffffffffffffffffffffff0483118215151615620005db57620005da620003b1565b5b828202905092915050565b600081519050919050565b7f4e487b7100000000000000000000000000000000000000000000000000000000600052602260045260246000fd5b600060028204905060018216806200063957607f821691505b6020821081036200064f576200064e620005f1565b5b50919050565b60008190508160005260206000209050919050565b60006020601f8301049050919050565b600082821b905092915050565b600060088302620006b97fffffffffffffffffffffffffffffffffffffffffffffffffffffffffffffffff826200067a565b620006c586836200067a565b95508019841693508086168417925050509392505050565b6000819050919050565b60006200070862000702620006fc84620000ff565b620006dd565b620000ff565b9050919050565b6000819050919050565b6200072483620006e7565b6200073c62000733826200070f565b84845462000687565b825550505050565b600090565b6200075362000744565b6200076081848462000719565b505050565b5b8181101562000788576200077c60008262000749565b60018101905062000766565b5050565b601f821115620007d757620007a18162000655565b620007ac846200066a565b81016020851015620007bc578190505b620007d4620007cb856200066a565b83018262000765565b50505b505050565b600082821c905092915050565b6000620007fc60001984600802620007dc565b1980831691505092915050565b6000620008178383620007e9565b9150826002028217905092915050565b6200083282620005e6565b67ffffffffffffffff8111156200084e576200084d62000155565b5b6200085a825462000620565b620008678282856200078c565b600060209050601f8311600181146200089f57600084156200088a578287015190505b62000896858262000809565b86555062000906565b601f198416620008af8662000655565b60005b82811015620008d957848901518255600182019150602085019450602081019050620008b2565b86831015620008f95784890151620008f5601f891682620007e9565b8355505b6001600288020188555050505b505050505050565b61257a806200091e6000396000f3fe608060405234801561001057600080fd5b50600436106100cf5760003560e01c806370a082311161008c578063d73dd62311610066578063d73dd6231461023c578063dd62ed3e1461026c578063e816d8d81461029c578063e8f71d1b146102cc576100cf565b806370a08231146101be57806395d89b41146101ee578063a9059cbb1461020c576100cf565b806306fdde03146100d4578063095ea7b3146100f257806318160ddd1461012257806323b872dd14610140578063313ce56714610170578063661884631461018e575b600080fd5b6100dc6102fc565b6040516100e991906119ed565b60405180910390f35b61010c60048036038101906101079190611ab7565b61038a565b6040516101199190611b12565b60405180910390f35b61012a6104ea565b6040516101379190611b3c565b60405180910390f35b61015a60048036038101906101559190611b57565b6104f0565b6040516101679190611b12565b60405180910390f35b61017861090f565b6040516101859190611bc6565b60405180910390f35b6101a860048036038101906101a39190611ab7565b610922565b6040516101b59190611b12565b60405180910390f35b6101d860048036038101906101d39190611be1565b610c9e565b6040516101e59190611b3c565b60405180910390f35b6101f6610ce7565b60405161020391906119ed565b60405180910390f35b61022660048036038101906102219190611ab7565b610d75565b6040516102339190611b12565b60405180910390f35b61025660048036038101906102519190611ab7565b610dc9565b6040516102639190611b12565b60405180910390f35b61028660048036038101906102819190611c0e565b61118a565b6040516102939190611b3c565b60405180910390f35b6102b660048036038101906102b19190611e59565b611211565b6040516102c39190611b3c565b60405180910390f35b6102e660048036038101906102e19190611e59565b6113fe565b6040516102f39190611b3c565b60405180910390f35b6003805461030990611f13565b80601f016020809104026020016040519081016040528092919081815260200182805461033590611f13565b80156103825780601f1061035757610100808354040283529160200191610382565b820191906000526020600020905b81548152906001019060200180831161036557829003601f168201915b505050505081565b60008073ffffffffffffffffffffffffffffffffffffffff168373ffffffffffffffffffffffffffffffffffffffff16036103fa576040517f08c379a00000000000000000000000000000000000000000000000000000000081526004016103f190611fb6565b60405180910390fd5b81600260003373ffffffffffffffffffffffffffffffffffffffff1673ffffffffffffffffffffffffffffffffffffffff16815260200190815260200160002060008573ffffffffffffffffffffffffffffffffffffffff1673ffffffffffffffffffffffffffffffffffffffff168152602001908152602001600020819055508273ffffffffffffffffffffffffffffffffffffffff163373ffffffffffffffffffffffffffffffffffffffff167f8c5be1e5ebec7d5bd14f71427d1e84f3dd0314c0f7b2291e5b200ac8c7c3b925846040516104d89190611b3c565b60405180910390a36001905092915050565b60005481565b600080600260008673ffffffffffffffffffffffffffffffffffffffff1673ffffffffffffffffffffffffffffffffffffffff16815260200190815260200160002060003373ffffffffffffffffffffffffffffffffffffffff1673ffffffffffffffffffffffffffffffffffffffff168152602001908152602001600020549050828110156105b5576040517f08c379a00000000000000000000000000000000000000000000000000000000081526004016105ac90612022565b60405180910390fd5b600073ffffffffffffffffffffffffffffffffffffffff168473ffffffffffffffffffffffffffffffffffffffff1603610624576040517f08c379a000000000000000000000000000000000000000000000000000000000815260040161061b906120b4565b60405180910390fd5b6106ad836040518060400160405280601781526020017f5370656e6465722062616c616e636520746f6f206c6f77000000000000000000815250600160008973ffffffffffffffffffffffffffffffffffffffff1673ffffffffffffffffffffffffffffffffffffffff168152602001908152602001600020546115eb9092919063ffffffff16565b600160008773ffffffffffffffffffffffffffffffffffffffff1673ffffffffffffffffffffffffffffffffffffffff1681526020019081526020016000208190555061074283600160008773ffffffffffffffffffffffffffffffffffffffff1673ffffffffffffffffffffffffffffffffffffffff1681526020019081526020016000205461164f90919063ffffffff16565b600160008673ffffffffffffffffffffffffffffffffffffffff1673ffffffffffffffffffffffffffffffffffffffff16815260200190815260200160002081905550600019811461089e5761081d83600260008873ffffffffffffffffffffffffffffffffffffffff1673ffffffffffffffffffffffffffffffffffffffff16815260200190815260200160002060003373ffffffffffffffffffffffffffffffffffffffff1673ffffffffffffffffffffffffffffffffffffffff168152602001908152602001600020546116ad90919063ffffffff16565b600260008773ffffffffffffffffffffffffffffffffffffffff1673ffffffffffffffffffffffffffffffffffffffff16815260200190815260200160002060003373ffffffffffffffffffffffffffffffffffffffff1673ffffffffffffffffffffffffffffffffffffffff168152602001908152602001600020819055505b8373ffffffffffffffffffffffffffffffffffffffff168573ffffffffffffffffffffffffffffffffffffffff167fddf252ad1be2c89b69c2b068fc378daa952ba7f163c4a11628f55a4df523b3ef856040516108fb9190611b3c565b60405180910390a360019150509392505050565b600460009054906101000a900460ff1681565b60008073ffffffffffffffffffffffffffffffffffffffff168373ffffffffffffffffffffffffffffffffffffffff1603610992576040517f08c379a000000000000000000000000000000000000000000000000000000000815260040161098990611fb6565b60405180910390fd5b6000600260003373ffffffffffffffffffffffffffffffffffffffff1673ffffffffffffffffffffffffffffffffffffffff16815260200190815260200160002060008573ffffffffffffffffffffffffffffffffffffffff1673ffffffffffffffffffffffffffffffffffffffff16815260200190815260200160002054905080831115610aa2576000600260003373ffffffffffffffffffffffffffffffffffffffff1673ffffffffffffffffffffffffffffffffffffffff16815260200190815260200160002060008673ffffffffffffffffffffffffffffffffffffffff1673ffffffffffffffffffffffffffffffffffffffff16815260200190815260200160002081905550610bb2565b610b3183600260003373ffffffffffffffffffffffffffffffffffffffff1673ffffffffffffffffffffffffffffffffffffffff16815260200190815260200160002060008773ffffffffffffffffffffffffffffffffffffffff1673ffffffffffffffffffffffffffffffffffffffff168152602001908152602001600020546116ad90919063ffffffff16565b600260003373ffffffffffffffffffffffffffffffffffffffff1673ffffffffffffffffffffffffffffffffffffffff16815260200190815260200160002060008673ffffffffffffffffffffffffffffffffffffffff1673ffffffffffffffffffffffffffffffffffffffff168152602001908152602001600020819055505b8373ffffffffffffffffffffffffffffffffffffffff163373ffffffffffffffffffffffffffffffffffffffff167f8c5be1e5ebec7d5bd14f71427d1e84f3dd0314c0f7b2291e5b200ac8c7c3b925600260003373ffffffffffffffffffffffffffffffffffffffff1673ffffffffffffffffffffffffffffffffffffffff16815260200190815260200160002060008873ffffffffffffffffffffffffffffffffffffffff1673ffffffffffffffffffffffffffffffffffffffff16815260200190815260200160002054604051610c8b9190611b3c565b60405180910390a3600191505092915050565b6000600160008373ffffffffffffffffffffffffffffffffffffffff1673ffffffffffffffffffffffffffffffffffffffff168152602001908152602001600020549050919050565b60058054610cf490611f13565b80601f0160208091040260200160405190810160405280929190818152602001828054610d2090611f13565b8015610d6d5780601f10610d4257610100808354040283529160200191610d6d565b820191906000526020600020905b815481529060010190602001808311610d5057829003601f168201915b505050505081565b6000610d8183836116f7565b905080610dc3576040517f08c379a0000000000000000000000000000000000000000000000000000000008152600401610dba90612120565b60405180910390fd5b92915050565b60008073ffffffffffffffffffffffffffffffffffffffff168373ffffffffffffffffffffffffffffffffffffffff1603610e39576040517f08c379a0000000000000000000000000000000000000000000000000000000008152600401610e3090611fb6565b60405180910390fd5b6000600260003373ffffffffffffffffffffffffffffffffffffffff1673ffffffffffffffffffffffffffffffffffffffff16815260200190815260200160002060008573ffffffffffffffffffffffffffffffffffffffff1673ffffffffffffffffffffffffffffffffffffffff16815260200190815260200160002054905080610ece848361164f90919063ffffffff16565b1080610eee5750600019610eeb848361164f90919063ffffffff16565b10155b15610f8e57610f0960016000196116ad90919063ffffffff16565b600260003373ffffffffffffffffffffffffffffffffffffffff1673ffffffffffffffffffffffffffffffffffffffff16815260200190815260200160002060008673ffffffffffffffffffffffffffffffffffffffff1673ffffffffffffffffffffffffffffffffffffffff1681526020019081526020016000208190555061109e565b61101d83600260003373ffffffffffffffffffffffffffffffffffffffff1673ffffffffffffffffffffffffffffffffffffffff16815260200190815260200160002060008773ffffffffffffffffffffffffffffffffffffffff1673ffffffffffffffffffffffffffffffffffffffff1681526020019081526020016000205461164f90919063ffffffff16565b600260003373ffffffffffffffffffffffffffffffffffffffff1673ffffffffffffffffffffffffffffffffffffffff16815260200190815260200160002060008673ffffffffffffffffffffffffffffffffffffffff1673ffffffffffffffffffffffffffffffffffffffff168152602001908152602001600020819055505b8373ffffffffffffffffffffffffffffffffffffffff163373ffffffffffffffffffffffffffffffffffffffff167f8c5be1e5ebec7d5bd14f71427d1e84f3dd0314c0f7b2291e5b200ac8c7c3b925600260003373ffffffffffffffffffffffffffffffffffffffff1673ffffffffffffffffffffffffffffffffffffffff16815260200190815260200160002060008873ffffffffffffffffffffffffffffffffffffffff1673ffffffffffffffffffffffffffffffffffffffff168152602001908152602001600020546040516111779190611b3c565b60405180910390a3600191505092915050565b6000600260008473ffffffffffffffffffffffffffffffffffffffff1673ffffffffffffffffffffffffffffffffffffffff16815260200190815260200160002060008373ffffffffffffffffffffffffffffffffffffffff1673ffffffffffffffffffffffffffffffffffffffff16815260200190815260200160002054905092915050565b60008251845114611257576040517f08c379a000000000000000000000000000000000000000000000000000000000815260040161124e906121b2565b60405180910390fd5b606463ffffffff168451106112a1576040517f08c379a00000000000000000000000000000000000000000000000000000000081526004016112989061221e565b60405180910390fd5b6000805b85518110156112ee576112db8582815181106112c4576112c361223e565b5b60200260200101518361164f90919063ffffffff16565b9150806112e79061229c565b90506112a5565b506b033b2e3c9fd0803ce8000000811061133d576040517f08c379a000000000000000000000000000000000000000000000000000000000815260040161133490612330565b60405180910390fd5b600080600090505b86518110156113bc5761138c8782815181106113645761136361223e565b5b602002602001015187838151811061137f5761137e61223e565b5b60200260200101516116f7565b915081156113ab576113a860018561164f90919063ffffffff16565b93505b806113b59061229c565b9050611345565b50837f8ed71c3a6fb899bfe96968ade5a4119b380c0d642a775106eb80aa795450777e846040516113ed9190611b3c565b60405180910390a250509392505050565b60008251845114611444576040517f08c379a000000000000000000000000000000000000000000000000000000000815260040161143b906123c2565b60405180910390fd5b606463ffffffff1684511061148e576040517f08c379a00000000000000000000000000000000000000000000000000000000081526004016114859061242e565b60405180910390fd5b6000805b85518110156114db576114c88582815181106114b1576114b061223e565b5b60200260200101518361164f90919063ffffffff16565b9150806114d49061229c565b9050611492565b506b033b2e3c9fd0803ce8000000811061152a576040517f08c379a000000000000000000000000000000000000000000000000000000000815260040161152190612330565b60405180910390fd5b600080600090505b86518110156115a9576115798782815181106115515761155061223e565b5b602002602001015187838151811061156c5761156b61223e565b5b6020026020010151610dc9565b915081156115985761159560018561164f90919063ffffffff16565b93505b806115a29061229c565b9050611532565b50837fca78741c6b48402cfa7be577db6559c46abb0f8ba9ce1468cf71297349370d9c846040516115da9190611b3c565b60405180910390a250509392505050565b6000838311158290611633576040517f08c379a000000000000000000000000000000000000000000000000000000000815260040161162a91906119ed565b60405180910390fd5b5060008385611642919061244e565b9050809150509392505050565b600080828461165e9190612482565b9050838110156116a3576040517f08c379a000000000000000000000000000000000000000000000000000000000815260040161169a90612524565b60405180910390fd5b8091505092915050565b60006116ef83836040518060400160405280601e81526020017f536166654d6174683a207375627472616374696f6e206f766572666c6f7700008152506115eb565b905092915050565b60008073ffffffffffffffffffffffffffffffffffffffff168373ffffffffffffffffffffffffffffffffffffffff1603611735576000905061194e565b3073ffffffffffffffffffffffffffffffffffffffff168373ffffffffffffffffffffffffffffffffffffffff1603611771576000905061194e565b81600160003373ffffffffffffffffffffffffffffffffffffffff1673ffffffffffffffffffffffffffffffffffffffff1681526020019081526020016000205410156117c1576000905061194e565b81600160003373ffffffffffffffffffffffffffffffffffffffff1673ffffffffffffffffffffffffffffffffffffffff1681526020019081526020016000205461180c919061244e565b600160003373ffffffffffffffffffffffffffffffffffffffff1673ffffffffffffffffffffffffffffffffffffffff168152602001908152602001600020819055506118a182600160008673ffffffffffffffffffffffffffffffffffffffff1673ffffffffffffffffffffffffffffffffffffffff1681526020019081526020016000205461164f90919063ffffffff16565b600160008573ffffffffffffffffffffffffffffffffffffffff1673ffffffffffffffffffffffffffffffffffffffff168152602001908152602001600020819055508273ffffffffffffffffffffffffffffffffffffffff163373ffffffffffffffffffffffffffffffffffffffff167fddf252ad1be2c89b69c2b068fc378daa952ba7f163c4a11628f55a4df523b3ef846040516119419190611b3c565b60405180910390a3600190505b92915050565b600081519050919050565b600082825260208201905092915050565b60005b8381101561198e578082015181840152602081019050611973565b8381111561199d576000848401525b50505050565b6000601f19601f8301169050919050565b60006119bf82611954565b6119c9818561195f565b93506119d9818560208601611970565b6119e2816119a3565b840191505092915050565b60006020820190508181036000830152611a0781846119b4565b905092915050565b6000604051905090565b600080fd5b600080fd5b600073ffffffffffffffffffffffffffffffffffffffff82169050919050565b6000611a4e82611a23565b9050919050565b611a5e81611a43565b8114611a6957600080fd5b50565b600081359050611a7b81611a55565b92915050565b6000819050919050565b611a9481611a81565b8114611a9f57600080fd5b50565b600081359050611ab181611a8b565b92915050565b60008060408385031215611ace57611acd611a19565b5b6000611adc85828601611a6c565b9250506020611aed85828601611aa2565b9150509250929050565b60008115159050919050565b611b0c81611af7565b82525050565b6000602082019050611b276000830184611b03565b92915050565b611b3681611a81565b82525050565b6000602082019050611b516000830184611b2d565b92915050565b600080600060608486031215611b7057611b6f611a19565b5b6000611b7e86828701611a6c565b9350506020611b8f86828701611a6c565b9250506040611ba086828701611aa2565b9150509250925092565b600060ff82169050919050565b611bc081611baa565b82525050565b6000602082019050611bdb6000830184611bb7565b92915050565b600060208284031215611bf757611bf6611a19565b5b6000611c0584828501611a6c565b91505092915050565b60008060408385031215611c2557611c24611a19565b5b6000611c3385828601611a6c565b9250506020611c4485828601611a6c565b9150509250929050565b600080fd5b7f4e487b7100000000000000000000000000000000000000000000000000000000600052604160045260246000fd5b611c8b826119a3565b810181811067ffffffffffffffff82111715611caa57611ca9611c53565b5b80604052505050565b6000611cbd611a0f565b9050611cc98282611c82565b919050565b600067ffffffffffffffff821115611ce957611ce8611c53565b5b602082029050602081019050919050565b600080fd5b6000611d12611d0d84611cce565b611cb3565b90508083825260208201905060208402830185811115611d3557611d34611cfa565b5b835b81811015611d5e5780611d4a8882611a6c565b845260208401935050602081019050611d37565b5050509392505050565b600082601f830112611d7d57611d7c611c4e565b5b8135611d8d848260208601611cff565b91505092915050565b600067ffffffffffffffff821115611db157611db0611c53565b5b602082029050602081019050919050565b6000611dd5611dd084611d96565b611cb3565b90508083825260208201905060208402830185811115611df857611df7611cfa565b5b835b81811015611e215780611e0d8882611aa2565b845260208401935050602081019050611dfa565b5050509392505050565b600082601f830112611e4057611e3f611c4e565b5b8135611e50848260208601611dc2565b91505092915050565b600080600060608486031215611e7257611e71611a19565b5b600084013567ffffffffffffffff811115611e9057611e8f611a1e565b5b611e9c86828701611d68565b935050602084013567ffffffffffffffff811115611ebd57611ebc611a1e565b5b611ec986828701611e2b565b9250506040611eda86828701611aa2565b9150509250925092565b7f4e487b7100000000000000000000000000000000000000000000000000000000600052602260045260246000fd5b60006002820490506001821680611f2b57607f821691505b602082108103611f3e57611f3d611ee4565b5b50919050565b7f546f6b656e207370656e64657220697320616e20756e696e697469616c697a6560008201527f6420616464726573730000000000000000000000000000000000000000000000602082015250565b6000611fa060298361195f565b9150611fab82611f44565b604082019050919050565b60006020820190508181036000830152611fcf81611f93565b9050919050565b7f5370656e64657220616c6c6f77616e636520746f6f206c6f7700000000000000600082015250565b600061200c60198361195f565b915061201782611fd6565b602082019050919050565b6000602082019050818103600083015261203b81611fff565b9050919050565b7f43616e27742073656e6420746f6b656e7320746f20756e696e697469616c697a60008201527f6564206164647265737300000000000000000000000000000000000000000000602082015250565b600061209e602a8361195f565b91506120a982612042565b604082019050919050565b600060208201905081810360008301526120cd81612091565b9050919050565b7f5472616e73666572206469646e27742073756363656564000000000000000000600082015250565b600061210a60178361195f565b9150612115826120d4565b602082019050919050565b60006020820190508181036000830152612139816120fd565b9050919050565b7f416d6f756e74206f6620726563697069656e747320616e642076616c7565732060008201527f646f6e2774206d61746368000000000000000000000000000000000000000000602082015250565b600061219c602b8361195f565b91506121a782612140565b604082019050919050565b600060208201905081810360008301526121cb8161218f565b9050919050565b7f546f6f206d616e7920726563697069656e747300000000000000000000000000600082015250565b600061220860138361195f565b9150612213826121d2565b602082019050919050565b60006020820190508181036000830152612237816121fb565b9050919050565b7f4e487b7100000000000000000000000000000000000000000000000000000000600052603260045260246000fd5b7f4e487b7100000000000000000000000000000000000000000000000000000000600052601160045260246000fd5b60006122a782611a81565b91507fffffffffffffffffffffffffffffffffffffffffffffffffffffffffffffffff82036122d9576122d861226d565b5b600182019050919050565b7f42756c6b2076616c756520746f6f206869676800000000000000000000000000600082015250565b600061231a60138361195f565b9150612325826122e4565b602082019050919050565b600060208201905081810360008301526123498161230d565b9050919050565b7f416d6f756e74206f66207370656e6465727320616e642076616c75657320646f60008201527f6e2774206d617463680000000000000000000000000000000000000000000000602082015250565b60006123ac60298361195f565b91506123b782612350565b604082019050919050565b600060208201905081810360008301526123db8161239f565b9050919050565b7f546f6f206d616e79207370656e64657273000000000000000000000000000000600082015250565b600061241860118361195f565b9150612423826123e2565b602082019050919050565b600060208201905081810360008301526124478161240b565b9050919050565b600061245982611a81565b915061246483611a81565b9250828210156124775761247661226d565b5b828203905092915050565b600061248d82611a81565b915061249883611a81565b9250827fffffffffffffffffffffffffffffffffffffffffffffffffffffffffffffffff038211156124cd576124cc61226d565b5b828201905092915050565b7f536166654d6174683a206164646974696f6e206f766572666c6f770000000000600082015250565b600061250e601b8361195f565b9150612519826124d8565b602082019050919050565b6000602082019050818103600083015261253d81612501565b905091905056fea2646970667358221220916e614ea383c93ab4ed49894fa74113a18481b1b1c89b1856ab286e8a8f86b964736f6c634300080f0033",
  "linkReferences": {},
  "deployedLinkReferences": {}
}